:020000040800F2
:1000000000000220313D00089127000893270008D6
:10001000952700089727000899270008000000008E
:100020000000000000000000000000009B27000806
:100030009D270008000000009F270008A127000856
:10004000813D0008813D0008813D0008813D000898
:10005000813D0008813D0008813D0008813D000888
:10006000813D0008813D0008813D0008813D000878
:10007000813D0008813D0008813D0008813D000868
:10008000813D0008813D0008813D0008813D000858
:10009000813D0008813D0008813D0008813D000848
:1000A0007D14000899140008813D0008813D000876
:1000B000813D0008813D0008813D0008813D000828
:1000C000813D0008813D0008813D0008813D000818
:1000D000813D0008813D0008813D0008813D000808
:1000E000813D0008813D0008813D0008813D0008F8
:1000F000813D0008813D0008813D0008813D0008E8
:10010000813D0008813D0008813D0008813D0008D7
:10011000813D0008813D0008813D0008813D0008C7
:10012000813D0008813D0008B5140008813D0008AC
:10013000813D0008813D0008813D0008813D0008A7
:10014000813D0008813D0008813D0008813D000897
:10015000813D0008813D0008813D0008813D000887
:10016000813D0008813D0008813D0008813D000877
:10017000813D0008813D0008813D0008000000002D
:08018000813D0008813D0008EB
:1001900010B5054C237833B9044B13B10448AFF3C1
:1001A00000800123237010BDE80000200000000043
:1001B000B8DA000808B5034B1BB103490348AFF395
:1001C000008008BD00000000EC000020B8DA000844
:1001D00001F0FF01102A2BDB10F0070F08D010F8F8
:1001E000013B013A8B422DD010F0070F42B3F6D1FC
:1001F000F0B441EA012141EA014122F007047FF015
:1002000000070023F0E80256083C85EA010586EA6B
:10021000010685FA47F5A3FA87F586FA47F6A5FAA7
:1002200087F68EB9EED1F0BC01F0FF0102F00702B3
:1002300032B110F8013B013A83EA010313B1F8D15E
:100240000020704701387047002D06BF354603383F
:10025000073815F0010F07D1013015F4807F02BF78
:10026000013015F4C03F0130F0BC0138704700BFC9
:1002700010F8012B11F8013B012A28BF9A42F7D050
:10028000D01A7047034613F8012B002AFBD1181A25
:100290000138704781F0004102E000BF83F0004365
:1002A00030B54FEA41044FEA430594EA050F08BF11
:1002B00090EA020F1FBF54EA000C55EA020C7FEAD5
:1002C000645C7FEA655C00F0E2804FEA5454D4EB52
:1002D0005555B8BF6D420CDD2C4480EA020281EA1C
:1002E000030382EA000083EA010180EA020281EA54
:1002F0000303362D88BF30BD11F0004F4FEA0131A6
:100300004FF4801C4CEA113102D0404261EB4101B4
:1003100013F0004F4FEA03334CEA133302D052423A
:1003200063EB430394EA050F00F0A780A4F10104F6
:10033000D5F1200E0DDB02FA0EFC22FA05F2801830
:1003400041F1000103FA0EF2801843FA05F3594116
:100350000EE0A5F120050EF1200E012A03FA0EFC95
:1003600028BF4CF0020C43FA05F3C01851EBE371BF
:1003700001F0004507D54FF0000EDCF1000C7EEBDC
:1003800000006EEB0101B1F5801F1BD3B1F5001F1A
:100390000CD349085FEA30004FEA3C0C04F1010439
:1003A0004FEA445212F5800F80F09A80BCF1004F62
:1003B00008BF5FEA500C50F1000041EB045141EAE4
:1003C000050130BD5FEA4C0C404141EB0101013CAD
:1003D00028BFB1F5801FE9D291F0000F04BF01469C
:1003E0000020B1FA81F308BF2033A3F10B03B3F16E
:1003F00020020CDA0C3208DD02F1140CC2F10C02FE
:1004000001FA0CF021FA02F10CE002F11402D8BF5B
:10041000C2F1200C01FA02F120FA0CFCDCBF41EA27
:100420000C019040E41AA2BF01EB0451294330BDF6
:100430006FEA04041F3C1CDA0C340EDC04F11404D3
:10044000C4F1200220FA04F001FA02F340EA0300AA
:1004500021FA04F345EA030130BDC4F10C04C4F1F0
:10046000200220FA02F001FA04F340EA03002946D0
:1004700030BD21FA04F0294630BD94F0000F83F41A
:10048000801306BF81F480110134013D4EE77FEAFD
:10049000645C18BF7FEA655C29D094EA050F08BF49
:1004A00090EA020F05D054EA000C04BF194610462A
:1004B00030BD91EA030F1EBF0021002030BD5FEA6E
:1004C000545C05D14000494128BF41F0004130BD96
:1004D00014F580043CBF01F5801130BD01F00045EA
:1004E00045F0FE4141F470014FF0000030BD7FEA5D
:1004F000645C1ABF194610467FEA655C1CBF0B4658
:10050000024650EA013406BF52EA033591EA030F6E
:1005100041F4002130BD00BF90F0000F04BF002166
:10052000704730B54FF4806404F132044FF0000599
:100530004FF0000150E700BF90F0000F04BF002112
:10054000704730B54FF4806404F1320410F0004578
:1005500048BF40424FF000013EE700BF42004FEA73
:10056000E2014FEA31014FEA02701FBF12F07F43F0
:1005700093F07F4F81F06051704732F07F4208BFA7
:10058000704793F07F4F04BF41F40021704730B5AE
:100590004FF4607401F0004521F000411CE700BFFA
:1005A00050EA010208BF704730B54FF000050AE07D
:1005B00050EA010208BF704730B511F0004502D57E
:1005C000404261EB41014FF4806404F132045FEA80
:1005D000915C3FF4D8AE4FF003025FEADC0C18BF29
:1005E00003325FEADC0C18BF033202EBDC02C2F11B
:1005F000200300FA03FC20FA02F001FA03FE40EAAD
:100600000E0021FA02F11444BDE600BF70B54FF0B0
:10061000FF0C4CF4E06C1CEA11541DBF1CEA13558E
:1006200094EA0C0F95EA0C0F00F0DEF82C4481EAF6
:10063000030621EA4C5123EA4C5350EA013518BF16
:1006400052EA033541F4801143F4801338D0A0FB03
:1006500002CE4FF00005E1FB02E506F00042E0FBB0
:1006600003E54FF00006E1FB03569CF0000F18BFB6
:100670004EF0010EA4F1FF04B6F5007F64F540745E
:1006800004D25FEA4E0E6D4146EB060642EAC621F1
:1006900041EA55514FEAC52040EA5E504FEACE2E5E
:1006A000B4F1FD0C88BFBCF5E06F1ED8BEF1004F61
:1006B00008BF5FEA500E50F1000041EB045170BDDD
:1006C00006F0004646EA010140EA020081EA030121
:1006D000B4EB5C04C2BFD4EB0C0541EA045170BD1D
:1006E00041F480114FF0000E013C00F3AB8014F197
:1006F000360FDEBF002001F0004170BDC4F10004E0
:10070000203C35DA0C341BDC04F11404C4F1200560
:1007100000FA05F320FA04F001FA05F240EA0200BB
:1007200001F0004221F0004110EBD37021FA04F6F1
:1007300042EB06015EEA430E08BF20EAD37070BDAB
:10074000C4F10C04C4F1200500FA04F320FA05F00A
:1007500001FA04F240EA020001F0004110EBD3700C
:1007600041F100015EEA430E08BF20EAD37070BD7C
:10077000C4F1200500FA05F24EEA020E20FA04F355
:1007800001FA05F243EA020321FA04F001F0004104
:1007900021FA04F220EA020000EBD3705EEA430E75
:1007A00008BF20EAD37070BD94F0000F0FD101F0A4
:1007B0000046400041EB010111F4801F08BF013CDD
:1007C000F7D041EA060195F0000F18BF704703F01B
:1007D0000046520043EB030313F4801F08BF013DA2
:1007E000F7D043EA0603704794EA0C0F0CEA13555E
:1007F00018BF95EA0C0F0CD050EA410618BF52EA18
:100800004306D1D181EA030101F000414FF000001D
:1008100070BD50EA410606BF1046194652EA43062B
:1008200019D094EA0C0F02D150EA013613D195EA9F
:100830000C0F05D152EA03361CBF104619460AD1E7
:1008400081EA030101F0004141F0FE4141F47001F1
:100850004FF0000070BD41F0FE4141F4780170BDE1
:1008600070B54FF0FF0C4CF4E06C1CEA11541DBF46
:100870001CEA135594EA0C0F95EA0C0F00F0A7F848
:10088000A4EB050481EA030E52EA03354FEA013175
:1008900000F088804FEA03334FF0805545EA131388
:1008A00043EA12634FEA022245EA111545EA106550
:1008B0004FEA00260EF000419D4208BF964244F1E7
:1008C000FD0404F5407402D25B084FEA3202B61A06
:1008D00065EB03055B084FEA32024FF480104FF4DA
:1008E000002CB6EB020E75EB030E22BFB61A75464E
:1008F00040EA0C005B084FEA3202B6EB020E75EBE1
:10090000030E22BFB61A754640EA5C005B084FEA48
:100910003202B6EB020E75EB030E22BFB61A754615
:1009200040EA9C005B084FEA3202B6EB020E75EB20
:10093000030E22BFB61A754640EADC0055EA060EE1
:1009400018D04FEA051545EA16754FEA06164FEA24
:10095000C30343EA52734FEAC2025FEA1C1CC0D1D0
:1009600011F4801F0BD141EA00014FF000004FF05D
:10097000004CB6E711F4801F04BF01430020B4F11E
:10098000FD0C88BFBCF5E06F3FF6AFAEB5EB030CD6
:1009900004BFB6EB020C5FEA500C50F1000041EBD3
:1009A000045170BD0EF0004E4EEA113114EB5C04A0
:1009B000C2BFD4EB0C0541EA045170BD41F4801173
:1009C0004FF0000E013C90E645EA060E8DE60CEA7B
:1009D000135594EA0C0F08BF95EA0C0F3FF43BAF98
:1009E00094EA0C0F0AD150EA01347FF434AF95EA4F
:1009F0000C0F7FF425AF104619462CE795EA0C0F33
:100A000006D152EA03353FF4FDAE1046194622E7FF
:100A100050EA410618BF52EA43067FF4C5AE50EAD9
:100A200041047FF40DAF52EA43057FF4EBAE12E7C9
:100A30004FF0FF3C06E000BF4FF0010C02E000BFAA
:100A40004FF0010C4DF804CD4FEA410C7FEA6C5C8D
:100A50004FEA430C18BF7FEA6C5C1BD001B050EA30
:100A6000410C0CBF52EA430C91EA030F02BF90EA1B
:100A7000020F0020704710F1000F91EA030F58BFDA
:100A8000994208BF90422CBFD8176FEAE37040F03C
:100A9000010070474FEA410C7FEA6C5C02D150EADA
:100AA000013C07D14FEA430C7FEA6C5CD6D152EA95
:100AB000033CD3D05DF8040B704700BF844610465A
:100AC00062468C461946634600E000BF01B5FFF759
:100AD000B7FF002848BF10F1000F01BD4DF808ED29
:100AE000FFF7F4FF0CBF012000205DF808FB00BFFA
:100AF0004DF808EDFFF7EAFF34BF012000205DF854
:100B000008FB00BF4DF808EDFFF7E0FF94BF0120A0
:100B100000205DF808FB00BF4DF808EDFFF7CEFFA1
:100B200094BF012000205DF808FB00BF4DF808EDE0
:100B3000FFF7C4FF34BF012000205DF808FB00BFB1
:100B40004FEA410212F5001215D211D56FF47873F5
:100B5000B3EB625212D94FEAC12343F0004343EA98
:100B6000505311F0004F23FA02F018BF4042704773
:100B70004FF00000704750EA013005D111F00040FD
:100B800008BF6FF0004070474FF00000704700BF93
:100B90004A0011D212F5001211D20DD56FF47873FC
:100BA000B3EB62520ED44FEAC12343F0004343EA51
:100BB000505323FA02F070474FF00000704750EA9C
:100BC000013002D14FF0FF3070474FF00000704706
:100BD00053B94AB9002908BF00281CBF4FF0FF31A4
:100BE0004FF0FF3000F074B9ADF1080C6DE904CEA0
:100BF00000F006F8DDF804E0DDE9022304B07047F8
:100C00002DE9F047089D04468E46002B4DD18A42BF
:100C1000944669D9B2FA82F252B101FA02F3C2F1F2
:100C2000200120FA01F10CFA02FC41EA030E944083
:100C30004FEA1C48210CBEFBF8F61FFA8CF708FBA4
:100C400016E341EA034306FB07F199420AD91CEB7C
:100C5000030306F1FF3080F01F81994240F21C81AE
:100C6000023E63445B1AA4B2B3FBF8F008FB1033F6
:100C700044EA034400FB07F7A7420AD91CEB04042B
:100C800000F1FF3380F00A81A74240F207816444FB
:100C9000023840EA0640E41B00261DB1D440002380
:100CA000C5E900433146BDE8F0878B4209D9002DE4
:100CB00000F0EF800026C5E9000130463146BDE86E
:100CC000F087B3FA83F6002E4AD18B4202D38242D8
:100CD00000F2F980841A61EB030301209E46002D87
:100CE000E0D0C5E9004EDDE702B9FFDEB2FA82F2DC
:100CF000002A40F09280A1EB0C014FEA1C471FFA3A
:100D00008CFE0126200CB1FBF7F307FB131140EA20
:100D100001410EFB03F0884208D91CEB010103F1ED
:100D2000FF3802D2884200F2CB804346091AA4B2AF
:100D3000B1FBF7F007FB101144EA01440EFB00FE83
:100D4000A64508D91CEB040400F1FF3102D2A645E8
:100D500000F2BB800846A4EB0E0440EA03409CE787
:100D6000C6F12007B34022FA07FC4CEA030C20FA34
:100D700007F401FA06F31C43F9404FEA1C4900FA54
:100D800006F3B1FBF9F8200C1FFA8CFE09FB1811D1
:100D900040EA014108FB0EF0884202FA06F20BD944
:100DA0001CEB010108F1FF3A80F08880884240F294
:100DB0008580A8F102086144091AA4B2B1FBF9F0D8
:100DC00009FB101144EA014100FB0EFE8E4508D9D3
:100DD0001CEB010100F1FF346CD28E456AD9023858
:100DE000614440EA0840A0FB0294A1EB0E01A1423D
:100DF000C846A64656D353D05DB1B3EB080261EBAB
:100E00000E0101FA07F722FA06F3F1401F43C5E984
:100E1000007100263146BDE8F087C2F12003D840BA
:100E20000CFA02FC21FA03F3914001434FEA1C47FC
:100E30001FFA8CFEB3FBF7F007FB10360B0C43EAEE
:100E4000064300FB0EF69E4204FA02F408D91CEB9E
:100E5000030300F1FF382FD29E422DD9023863449C
:100E60009B1B89B2B3FBF7F607FB163341EA03413C
:100E700006FB0EF38B4208D91CEB010106F1FF388B
:100E800016D28B4214D9023E6144C91A46EA004682
:100E900038E72E46284605E70646E3E61846F8E614
:100EA0004B45A9D2B9EB020864EB0C0E0138A3E75D
:100EB0004646EAE7204694E74046D1E7D0467BE73E
:100EC000023B614432E7304609E76444023842E7B6
:100ED000704700BF00F1080373B50360D1E9005308
:100EE0000446EE181DB916B10C480BF063FB0F2B2E
:100EF000019307D9002201A920460BF065FB019B55
:100F00002060A3603246294620680BF0BCFB019BA1
:100F1000226863600021D15402B070BDF0DA00088D
:100F200010B50446C18BC06A002204F0DBF9E38BE4
:100F30002363236A6363636AA3630223E06AE36350
:100F400004F13001BDE8104004F0ECB870B5584E23
:100F500090B0044657480BF057FE0FCE08AD0FC5B2
:100F600096E80F0085E80F0022681378502B2BD1EC
:100F700051785148A1F14103A376D378303B9BB21D
:100F8000A3831279303A92B2082A9EBF03EB8303FF
:100F900002EB4303A383A28B01239340E3830BF073
:100FA000ADFDA18B45480BF0A9FDA37E10AA02EB75
:100FB000830252F8202CE262072B17D8DFE803F0F7
:100FC0000A1C293643505D6A3D4810B0BDE87040A8
:100FD0000BF01ABE002300933A4B1A6B42F0010249
:100FE0001A631B6B03F001030093009B204610B0B3
:100FF000BDE87040FFF794BF00230193314B1A6B9B
:1010000042F002021A631B6B03F002030193019B7F
:10101000ECE7002302932B4B1A6B42F004021A6395
:101020001B6B03F004030293029BDFE7002303938F
:10103000244B1A6B42F008021A631B6B03F008037F
:101040000393039BD2E7002304931E4B1A6B42F0D9
:1010500010021A631B6B03F010030493049BC5E793
:1010600000230593174B1A6B42F020021A631B6B87
:1010700003F020030593059BB8E700230693114B6B
:101080001A6B42F040021A631B6B03F04003069395
:10109000069BABE7002307930A4B1A6B42F08002D2
:1010A0001A631B6B03F080030793079B9EE700BF47
:1010B000D0DA00081ADB000829DB00083ADB000858
:1010C00046DB00080038024038B504461546EDB24C
:1010D000FFF700FF25761422002104F130000BF009
:1010E00025FC35B9C4E908552046FFF72FFF2046F7
:1010F00038BD01220023C4E90823F5E770B5044692
:1011000016461D46F6B2EDB2FFF7E4FE267665768A
:101110001422002104F130000BF008FCDEB9266235
:10112000042D09D8DFE805F01208030D12000B4862
:101130000BF06AFD012363622046FFF707FF20469C
:1011400070BD07480BF060FD0223F4E705480BF083
:101150005BFD0023EFE701232362FAE768DB000869
:1011600081DB00089CDB000803F0A8BE7FB5324B92
:1011700098425FD800F1784243F6FE7100238A421C
:10118000CDE9003333D9A2F580438B423ED9A2F595
:1011900000438B423CD9A2F540428A423AD900F141
:1011A000774000F57F024FF6FE739A4234D900F57E
:1011B0007E0203F580339A4230D900F57C029A42D0
:1011C0002ED900F57A029A422CD900F578029A427B
:1011D0002AD900F576029A4228D900F574029A427B
:1011E00026D900F57200984294BF0B230023039385
:1011F00001220223694601A8CDE9042303F042FF3E
:10120000003818BF012007B05DF804FB0123EEE7AA
:101210000223ECE70323EAE70423E8E70523E6E7F4
:101220000623E4E70723E2E70823E0E70923DEE7F4
:101230000A23DCE70120E6E700000E082DE9F04173
:10124000DFF84480044617460D1F0026B74214D924
:101250002368434511D821686A680023022003F0FF
:1012600067FE68B923681A6855F8043F9A4209D1A5
:101270002368043323600136E8E70020BDE8F081ED
:101280000120FBE70220F9E7FBFF0F087047000091
:101290002DE9F843DFF8E490BDF8208015460E46AE
:1012A0005289696848461F460BF018FBD9F8003090
:1012B0002C4A934230D12C4C2378612323706278DE
:1012C00074226270A278A370E3786423E370274BE2
:1012D000186801F07BFC4424A4B221464FF420722C
:1012E000362005F0C7FF22461F49814606F0C2F9A5
:1012F00042463946304609F0F9FD4946304609F084
:10130000D3FD304609F02EFE484605F04FFF284633
:10131000BDE8F84305F04ABF154A93421CD1124C70
:1013200023786E23237063786B236370A378632321
:10133000A370E3786123E3700C4B186801F046FC5E
:1013400072B60C4A002319F8011BD1540133442B07
:10135000F9D162B60424BFE707480BF0CFFB0024A5
:10136000BAE700BF646165720D03002074010020BC
:1013700074697277BC020020B5DB00087802002097
:1013800070B514460A4D5289616828460BF0A6FADA
:10139000204605F00BFF2A68064B9A4206D1064B01
:1013A00018680368BDE870405B69184770BD00BFEE
:1013B000F40100206467706D5401002011B9C0E988
:1013C00000117047024B036000234360704700BF69
:1013D0008D12000838B50D46044654B1E16835B1A8
:1013E00049B9B4F90A3063B104EB0314F5E70029F5
:1013F000F7D1204638BD2846FEF73AFF0028F0D145
:10140000F7E71C46F5E70346D1E9010210308242B6
:1014100010B512D3A2F110008860596859B1441A6E
:1014200024114C815860002322F8063C02F8083C45
:1014300042F8043C10BD1860F4E70020FAE7826827
:1014400010B54AB14368C468A34237BF5C1C00238F
:101450004460D15428BF836010BD38B504460021D4
:10146000FFF7EDFFA06838B1D4E90051E368CA1A6C
:101470006B6813446B60E16038BD0000054B1A696E
:10148000D20705D51A6922F001021A6101F022BBC8
:10149000704700BF00400140054B1A69D20705D5CF
:1014A0001A6922F001021A6101F01CBB704700BFEB
:1014B0000044014001F01EBB38B530200BF063F84A
:1014C0000E4B0F491B680F4D1822044602F0ECFA30
:1014D0000D4B1C60202385F8183330200BF053F897
:1014E0000A4B0B491B681922044602F0DDFA094B2E
:1014F0001C60302385F8193338BD00BF4800002038
:101500000040014000E100E0700100205000002098
:10151000004401400003002007B54FF6FF7301901F
:10152000012201A9034804F0DDFC019803B05DF835
:1015300004FB00BFA801002038B5244B5968B1F561
:10154000403F08D3224B234800221A700BF05CFB6B
:101550004FF0FF3038BD204A204C136B43F48053CA
:101560001363A2F50062012393600023994206D021
:1015700054F8230090FAA0F010600133F6E71368E6
:1015800093FAA3F3164C114D1648DB4323600BF07E
:10159000B5FAA96814480BF0B1FA216813480BF0AA
:1015A000ADFA0D4A136B23F4805313632A68236842
:1015B0009A42074B4FF000021A7001D00C48C5E761
:1015C0000C480BF021FB0120C4E700BF00000D0810
:1015D0002D020020C2DB00080038024000020D0886
:1015E0007C010020DFDB0008F5DB000810DC0008D0
:1015F0001DDC00083CDC00080F4B104870B59D68EE
:101600000F4EFFF7B3FDAAB20C490023022003F0EE
:101610008FFC0024ADB2AC420CD248B904F1006397
:1016200003F55023A11993F80022034603F080FC30
:101630000134F0E770BD00BF00000D0800000E0887
:1016400004000E08F8B504461B480BF0DDFA1B4BEE
:101650001E68731C18D11A481A4D1B4F0BF0D4FA90
:101660001A480BF0D1FA204640F217210BF0C9F8C6
:10167000002440F2172615F8011B384601340BF000
:1016800048F8B442F7D1F8BD314620460BF0B9F81E
:101690000D4F0025B54209D005F1006303F5602325
:1016A000384619790BF035F80135F3E72168084819
:1016B000BDE8F8400BF022BA59DC000800000E0823
:1016C0008FDC0008BCDF000858010020C0DC0008E7
:1016D000FBDC000810B594B0102200210AA80BF022
:1016E00025F91422002103A80BF020F9204B00213A
:1016F00001911A6C42F080521A641B6C03F0805303
:101700000193019B1B4B02911A6842F480421A60BC
:101710001B6803F480430293029B01214FF4A02332
:101720000224CDE908134FF480031920CDE90E43BC
:101730004FF4A873CDE91003042308A8129413935F
:1017400003F0D6FD08B172B6FEE70F23CDE90334EE
:1017500005904FF4A0524FF48053052103A8CDE922
:10176000062303F0A3FF08B172B6FEE714B010BD64
:10177000003802400070004072B6FEE713B509F071
:1017800041FC4FF00A3346F62D2201A9044601938D
:1017900009F010FA024698B90D49204609F0FAFB03
:1017A00009F030FC46F62E2201A9044609F002FA9F
:1017B000024648B90749204609F0ECFB02B010BDCB
:1017C000204609F0F9FBEBE7204609F0F5FBF5E7C9
:1017D0009112000881130008837B33B943685A1CB7
:1017E00042601B78437301238373407B704770B55D
:1017F000044600252046FFF7EFFF0D2823D007D829
:10180000D8B10938C0B201281DD94FF0000016E048
:10181000202818D02F28F8D1A5732046FFF7DCFF29
:101820002A2804D02F2816D04FF0020007E0A57315
:1018300000262046FFF7D0FF10B94FF0010070BD21
:101840002F2802D10EB1A573D4E7A0F12A035E427E
:101850005E41A573EDE7A5732046FFF7BDFF0028A5
:10186000EBD00A28F7D1C5E740B1037A03F07F0334
:10187000033B012B01D80068704700207047037AB2
:10188000024613F0200002D01068FFF7A3BD704796
:10189000F0B582680E46D2E9011385B000250195A6
:1018A00053605B1A0446009202910393FFF794FF82
:1018B000A57307462046FFF78FFF8742A57323D005
:1018C00018B94FF0010005B0F0BD5C2817D12046D3
:1018D000FFF782FF0028F4D075280CD0104B1A793E
:1018E000191D5AB1904203F10203F8D1487828B982
:1018F0004FF00200E7E74FF00400E4E7A57301466C
:101900006846FFF79CFDD5E76846FFF7A6FD306007
:1019100010B94FF00300D6E74FF00000D3E700BF47
:1019200000DD00082F2807D9392803D95E280CD9F3
:101930007A2805D8012070472B28FBD02D28F9D014
:10194000A0F12E035842584170474028F8D95A2830
:10195000EFE7F0B585B005460E46FFF73DFF2728B7
:1019600029D0222827D0AA680092D2E901130027A3
:101970000197284653605B1A02910393FFF72CFFEF
:101980000446F0B1FFF7CEFFE8B121466846AF73D9
:10199000FFF755FD2846FFF71FFF0446FFF7C2FF7C
:1019A0000028F2D16846FFF758FD0028306014BFC8
:1019B0000020032003E031462846FFF769FF05B009
:1019C000F0BD0120FBE70220F9E710B10068FFF746
:1019D00001BD70472DE9F84338480BF015F91C207C
:1019E0000AF0D1FD044601F0C1F8354B1C60354BBF
:1019F0002146186802F0FAF8334B1B78002B5AD1B5
:101A000032493348FFF73BFF002854D0037A5B0686
:101A100051D504682F4FDFF8E080DFF8E090002C0C
:101A200049D0237A13F0200F14BF254600254946DC
:101A30002846C7E90058FFF7C8FFFFF715FF2649FA
:101A400006462846FFF7C1FFFFF70EFF234905466C
:101A50003046FEF70DFC78B921480BF0D5F8214946
:101A60002846FEF705FC08B901F032FFB4F90A3048
:101A70000BB304EB0314D2E71B493046FEF7F8FB27
:101A80000028F3D119492846FEF7F2FB10B901F0FE
:101A900067F9EBE716492846FEF7EAFB10B901F0B3
:101AA0004FFDE3E713492846FEF7E2FB0028DDD1AE
:101AB00001F026FCDAE7BDE8F88300BF0FDD00087F
:101AC00074010020000300207801002023DD0008BD
:101AD00098010020EC01002032DD000837DD00080D
:101AE0003CDD000850DD000858DD00080CE300086C
:101AF0005EDD00086ADD0008880100202BDD00089B
:101B000070B5334E334C3378BFF35B8F13F0010F56
:101B1000054634D130460AF027FD00282FD01AA3FD
:101B2000D3E90023C4E9002319A3D3E90023C4E9BE
:101B3000022319A3D3E90023C4E9042318A3D3E99A
:101B40000023C4E9062318A3D3E90023C4E908232A
:101B500017A3D3E90023C4E90A2317A3D3E9002379
:101B6000C4E90C2316A3D3E90023C4E90E2316A36A
:101B7000D3E900233046C4E910230AF001FD04EB49
:101B8000C50494ED000B70BD9A9999999999B93F44
:101B90007B14AE47E17A843F2D431CEBE2361A3FBB
:101BA0003A8C30E28E79453EBC89D897B2D29C3CC3
:101BB00033A7A8D523F649393DA7F444FD0FA53234
:101BC0009D978CCF08BA5B25436FAC642806C80A82
:101BD00004010020080100202DE9F047041E2DED2E
:101BE000068B57EC106B3BDD9FED278B9FED289B01
:101BF0009FED29AB4FF00009E20727D5DFF8AC8055
:101C0000294D98F80030BFF35B8F13F0010F5FFA96
:101C100089FA11D140460AF0A7FC68B120A3D3E9A4
:101C2000002385ED0A8B85ED0C9B85ED0EABC5E998
:101C3000102340460AF0A4FC05EBCA05304639469D
:101C4000D5E90023FEF7E2FC06460F46641009F1D1
:101C50000109D1D1BDEC068B47EC106BBDE8F087D4
:101C600064420025002CF5D0E3070AD5E8B2FFF75F
:101C700047FF3046394653EC102BFEF7C7FC0646AB
:101C80000F4664100135EDE7176E05B5B5B89346FC
:101C9000F5F93FE9034F384D321D30F94877825A44
:101CA0003CBF737FDD4F1575000000205001002000
:101CB0002DE9F8430B782B2B04460ED02D2B0DD19C
:101CC000013101250B7803F0DF024E2A08D16F4B5A
:101CD0000022C4E9022308235BE001310025F1E77B
:101CE000492A05D10022002D40F0B280684BF0E770
:101CF000A3F13002092A0BD92E2B09D00022002390
:101D0000C4E9002300230022C4E90223002340E0A9
:101D10000020DFF884810E464FF0993E01460A27E5
:101D20004FF0FF39334613F801CBACF13002D2B299
:101D3000092A13D8864578EB010C12D307FB01FC66
:101D4000A0FB070161446FEA020C844579EB010CAA
:101D500007D3101841F100011E46E3E7BCF1000F64
:101D60000DD04FF00008B1F5801F1FFA88F708F179
:101D7000010812D30A220023FEF72AFFF3E7C4E981
:101D80000001FEF70DFCC4E90201002D14BF07237A
:101D9000062323742046BDE8F8833346BF1BFA1898
:101DA0001E4613F801CBACF1300EBEF1090F12B292
:101DB000F5D9BCF12E0F1BD1DFF8E0E09C460A27D5
:101DC00066460CF1010C3378303BDBB2092B0FD89F
:101DD000B0F1993F71EB0E06F2D2A0FB070607FBAC
:101DE0000161181802F1FF3241F1000112B2E7E778
:101DF000337803F0DF03452B45D173782D2B1DD1AC
:101E0000B71C4FF0010C00234FF00A083E4617F8AC
:101E100001EBAEF1300E5FFA8EF9B9F1090F19D866
:101E200008FB03E39E18B6F59A7FEFDD0022BCF1B4
:101E3000000F3FF458AF45B900234AE72B2B14BFDE
:101E4000771CB71C4FF0000CDDE74FF0004340E774
:101E5000104B3EE7BCF1000F00D05B423678002EFD
:101E60007FF44CAFD618FEF79BFB41EC100B3046CD
:101E7000FFF7B2FE53EC102B002D3FF42AAF03F115
:101E800000410B4625E70023E8E700BF0000F87F8C
:101E90000000F07F0000F0FF9999991999990100CD
:101EA0002DE9F04796B080460D46FFF795FC0024DB
:101EB0000646A2460DF118093046E7B2FFF732FD9B
:101EC00060B13F2C09D088F80EA0404604F80960A4
:101ED000FFF782FC01340646EEE7274607F1580378
:101EE0006B44002403F8404C9DF81830742B0BD140
:101EF0002B7A23F07F0343F005032B72012200238A
:101F0000C5E90023381F0CE0662B0FD12B7A23F094
:101F10007F0343F005032B7200220023C5E9002351
:101F2000781F18BF012016B0BDE8F0876E2BE9D0EE
:101F300006A96846FFF7BCFE9DF81030072BDDE9C7
:101F4000000109D0082B11D0062B1AD12B7A23F0CF
:101F50007F0343F0060304E02B7A23F07F0343F072
:101F60000703C5E900012B722046DCE72B7A23F03A
:101F70007F0343F008032B72DDE90223C5E9002348
:101F8000F2E74FF00200CEE730B585B005460C46CB
:101F9000FFF722FC272807D0222805D02146284613
:101FA000FFF77EFF05B030BD01A92846FFF770FCA2
:101FB000C2B2114602A8FFF701FA029B63B9039B64
:101FC00013F0010108D1237A23F07F0343F00403C7
:101FD0002372019B23600A461046E3E773B50C4663
:101FE0000646FFF704FCC1B202466846FFF7E6F971
:101FF000009B7BB9019D15F001050BD13046FFF721
:10200000EBFB5B2809D07B2814D021463046FFF734
:10201000BBFF00E0104602B070BD237A23F07F03BF
:1020200043F04003C4E9005523722146304600F0D6
:1020300063F8F0E7237A23F07F0343F02003C4E939
:10204000005523722146304600F0B5F8E3E7000062
:102050001FB51F480AF0D8FD1E491F4B8A68CA6089
:102060004A690A6191F820201B6822F07F0281F8FA
:1020700020201A4A002B08BF134601F10802CDE9BF
:10208000002332238DF80C30183100236846029269
:102090008DF80E30FFF7A2FFC4B211480AF02EFDF2
:1020A000022C08D0032C0ED07CB90E4804B0BDE839
:1020B00010400AF0A9BD0C480AF0A6FD0B4B012206
:1020C0001A7004B010BD0A48F6E70A48F4E700BFEA
:1020D00070DD000880010020580100200EDD00089E
:1020E00094DD0008AEDD0008C8DD0008780100209E
:1020F000D7DD0008E9DD000870B5037B86B0044633
:102100000D4623B94FF00501084606B070BDFFF734
:1021100063FB5B2802D04FF00201F5E70023A373B5
:102120002046FFF764FBC1B26846FFF747F9009B02
:10213000002BE9D1019BDA07E6D42046FFF74CFBE0
:102140005D282ED10021A173DEE7237B013B2373A1
:102150002046FFF743FF237B0133C1B2237302A85C
:10216000FFF72CF9029B002BCED1039BDB07CBD4CE
:102170002046FFF73CFBC1B204A8FFF71FF9049B00
:10218000002BC1D1059B13F00106BDD12046FFF7FE
:1021900023FB5D28D6D02046FFF71EFB2C28BAD1A2
:1021A000A67321682846FFF72EF901460028CCD1F6
:1021B0004FF00301A8E7F0B5037B8FB006460D464C
:1021C00023B94FF0050108460FB0F0BDFFF704FB3F
:1021D0007B2802D04FF00201F5E70023B3733046AD
:1021E000FFF705FBC1B202A8FFF7E8F8029B002B3E
:1021F000E9D1039B13F00104E5D13046FFF7ECFA77
:102200007D2869D1B4732146DDE701A93046FFF787
:10221000A0FBC1B204A8FFF7D1F8049B002BD2D1D8
:10222000059BDF07CFD4237A63F07F032372019BE2
:10223000E3603046FFF7DBFAC1B206A8FFF7BEF84D
:10224000069B002BBFD1079B13F00107BBD1304683
:10225000FFF7C2FA3A28BDD1337BB773013B337322
:1022600021463046FFF7BAFE337B0133C1B23373E8
:1022700008A8FFF7A3F8089B002BA4D1099BD80757
:10228000A1D43046FFF7B3FAC1B20AA8FFF796F817
:102290000A9B002B97D10B9BDA0794D43046FFF7AB
:1022A0009BFA7D2802D10021B1738CE73046FFF7FD
:1022B00093FA2C288ED10023B3733046FFF797FA98
:1022C000C1B20CA8FFF77AF80C9B002B7FF47BAF10
:1022D0000D9BDB073FF577AF31682846FFF793F892
:1022E0000446002891D14FF003016CE70000000084
:1022F0002DE9F04F504B1B7887B0002B40F09480B5
:102300004E480AF081FC4E494E48FFF7B8FA0028C3
:1023100000F08A80037A5B0640F186800FF2101B82
:10232000DBE900AB04684FF000084FF00009002C17
:102330007AD0237A444A454913F0200F14BF264629
:102340000026434B166030465360FFF73EFBFFF715
:102350008BFA404905463046FFF737FBE8B1037A70
:1023600003F07F03062B06D8042B18D8033B012B60
:102370002BD9002618E0082BFBD1D0E90067424694
:102380004B4630463946FEF7C7FB30B152465B46F6
:1023900030463946FEF7B6FB98BB064604E0D0E966
:1023A0000063002B18BF00262B492846FDF760FF6D
:1023B00078BB2A4B2A481E6031460AF09FFBB4F9CD
:1023C0000A308BB304EB0314B1E701686846FFF7EA
:1023D0006FFC9DF81030062B18D0082BC9D1DDE911
:1023E000026742464B4630463946FEF795FB0028C9
:1023F000D3D052465B4630463946FEF783FB002871
:10240000B7D030463946FEF7C3FBC6E7DDE90063C7
:10241000C7E714492846FDF72BFF0028CFD1124B00
:1024200012481E603146C8E707B0BDE8F08F00BF14
:102430000000E0FFFFFFEF417801002000DE000810
:1024400018DE000898010020040300202BDD00089E
:102450008801002020DE000837DD00084800002049
:102460002ADE000858DD00085000002050DE000879
:102470002DE9F04188B001F067FDFFF72BF903F07B
:10248000E7FE6548654A4FF4E133C0E900230023C5
:102490000C22C0E90233C0E905230361C36103F0E4
:1024A000F3FC054608B172B6FEE75D485D4E5E4F2F
:1024B0000AF024FB0524062D00F2A780DFE805F0D2
:1024C000045872808E95A30014B158480AF09CFB02
:1024D00004AB0293564BD3E9004304EB03082CB939
:1024E000B8F1000F02D053480AF064F80F2B0193A3
:1024F00007D9002201A902A80AF066F8019B029000
:1025000004932146029842460AF0BDF8019B029AC4
:1025100003930021D15402A8FFF794F802A80AF00F
:1025200075F8FFF795FDFFF7E3FEFEF7C5FFFFF730
:1025300051FAFFF723F900F09DFA01243E4803F019
:1025400041FF08F027FA3D4B1B786BB13C480AF07D
:102550005BFBFEF7F1FF002806DD3A480AF054FB6A
:10256000FFF74AF801F082FD2B4625461C46A2E7FC
:10257000012C02D034480AF047FB344C23787BB955
:1025800033480AF041FB334B186801F0A3FA324894
:102590000AF03AFB314B186801F09CFA01232370D2
:1025A0000224CBE7022C02D02D480AF02DFB2D4B44
:1025B000186800F00EFB00280CBF2C460324BDE772
:1025C000032C02D028480AF01FFB264B186800F0A5
:1025D00000FB002814BF2C460524AFE7042C18D0BC
:1025E00022480AF011FB2C46A8E7052C02D020480F
:1025F0000AF00AFB30460AF007FB44230022013BA5
:10260000CED3FA54FBE701F031FD23462C461D469C
:1026100094E7254692E700BFA8010020004400404F
:1026200077DE00085CDF0008BC02002090DE0008B6
:1026300058010020F0DA0008DC0400202D02002000
:1026400072DF000894DF0008AADE00080C030020F7
:10265000C3DE000870010020DDDE0008000300205A
:10266000F8DE00087401002010DF00082BDF0008EE
:1026700043DF000808B5124B03F108021A6000227C
:102680005A601A7243F698200AF008F9A8B100F5CA
:102690006A5218320B4BC3E9042293F8202022F02F
:1026A0007F0283F82020084AC3E902000023C2E920
:1026B0000033064AC2E9003308BD0246EAE700BF1C
:1026C000580100208001002004030020EC010020BC
:1026D00008B5044B98680AF0E9F8BDE808400248DC
:1026E00009F094BF800100205801002082B00C4BFB
:1026F000002100915A6C42F480425A645A6C02F4F0
:1027000080420092009A01911A6C42F080521A6441
:102710001B6C03F080530193019B02B0704700BF14
:102720000038024010B5044688B01422002103A8E6
:102730000AF0FCF82268144B9A4222D103F5FA33CE
:10274000002101911A6C114842F400321A641A6C8B
:1027500002F400320192019A02911A6B42F00802CF
:102760001A631B6B03F008030293029B602202238F
:102770000321CDE903230723CDE9061303A902F0C2
:10278000D1FC08B010BD00BF00440040000C024066
:10279000FEE7FEE7FEE7FEE7FEE77047704770479B
:1027A00001F0ECBB01207047024B16221A604FF07B
:1027B000FF307047CC870020014B16221A60FEE7DD
:1027C000CC87002070B50D4614460E46731B9C4204
:1027D00001DC204670BDAFF3008006F8010BF5E781
:1027E00070B50D4614460E46731B9C4201DC204614
:1027F00070BD16F8010BFEF78FFEF5E74FF0FF30C6
:1028000070474FF400534B60002070470120704721
:10281000002070470A4A116810B5034609B90949F2
:1028200011601068084C09490344091B8B4289BF99
:10283000074B13600C221A6088BF4FF0FF3010BDA9
:1028400054030020D887002000040000000002206C
:10285000CC870020034AD2F8883043F47003C2F8D2
:102860008830704700ED00E010B50446084603F0DC
:102870008DFF204608F076FB204608F09DFB044BB8
:1028800004491868BDE81040002208F083BB00BF6F
:1028900060030020E9280008F7B504240546174620
:1028A00098B200220E468DF804208DF8054003F002
:1028B00036FF2146ADF806004FF4C172362004F011
:1028C000D9FC044670B14368019A1A600146BBB254
:1028D0003246284608F0ACFA204603B0BDE8F04086
:1028E00004F064BC03B0F0BD2DE9F0471746BDF815
:1028F0002090984608F086FB054600283DD02049E8
:10290000002208F057F90646B8BB7B6893F801A08F
:10291000BAF1020F07D0284608F04EFB3846BDE852
:10292000F04704F043BC4FF40A7004F08BF80446FF
:1029300020B901462846FFF797FFEFE7D8F80030A7
:102940001049C0F800A00246C0E98339C0E9856695
:10295000284608F01FFB0C4B1E600C4EFEF704FCD3
:102960003046FEF703FC0A4B4A461E604146D4F847
:1029700014322846FFF790FFD0E7BDE8F08700BF8C
:102980007C000108952900085803002000000D086C
:102990005C030020F0B514461F46528923899342F8
:1029A000ADF5017D05460E4648D1042B49D9636833
:1029B000588803F0B4FED5F814320133984240D160
:1029C0006289043A042392B26946204604F00CFE60
:1029D000254B61891A68043A0A441A600B1F002BC0
:1029E0001A46B8BF01F1FF329B07C2F38F0234D100
:1029F0001E486946FEF722FCD5F814320133C5F8AB
:102A0000143263891A1FD5F818321344C5F81832E6
:102A1000D5F81432BDF8182239463046FFF73CFF8E
:102A20006389B3F5017F1BD229463046FFF71CFFAF
:102A3000204604F0BBFB0E4B01221A700DF5017D00
:102A4000F0BD6368588803F06AFED5F8143201338C
:102A50009842DDD1C5F81402DAE7013292B2C7E735
:102A6000204604F0A3FBE9E7580300205C030020A4
:102A70002D02002010B508F0C5FA084C206058B1AE
:102A80004522074908F096F8024628B9206805490A
:102A9000BDE8104008F07EBA10BD00BF6003002002
:102AA0007C000108E9280008014B0360704700BF63
:102AB00024E2000838B504460D46014603480AF0F2
:102AC0001DF8034B43F8245038BD00BFEBE100086C
:102AD00064030020024B186E03681B68184700BF90
:102AE00064030020024B586E03681B68184700BF40
:102AF00064030020024BD3F8E80003681B68184702
:102B00006403002010B5034B0360044600F072FA22
:102B1000204610BD6CE2000810B50446FFF7F2FF36
:102B200020461C2109F01EFD204610BD037D10B576
:102B30000446BBB101234375002283698275D98B9A
:102B4000D86A02F0CFFBA37D322B08D90023A375EE
:102B50006375A3690122D98BD86A02F0C3FB0023F5
:102B6000237510BD837D01338375ECE730B50446D2
:102B700087B000F049FA124B236012480AF044F87B
:102B8000114A02A8111F009009F082FD042301934D
:102B9000009B00221A71442009F0F5FC69460546A5
:102BA0000122FEF791FA6846A56109F02FFDA3699D
:102BB0000122D86AD98B02F095FB204607B030BDC0
:102BC0006CE2000828E2000861E2000801230375B6
:102BD0007047407D7047704710B5054B044640F87C
:102BE0002C3B09F013FD204600F004FA204610BDEE
:102BF00020E3000810B50446FFF7EEFF2046482109
:102C000009F0B0FC204610BD436C10B50446D98BCA
:102C1000D86A636A53B902F05FFB227F6369216A55
:102C2000A2B1A8B91A680A431A6010BD6369226A82
:102C30001B681340227F12B91BB9002202E0002B4F
:102C4000FBD10122BDE8104002F04CBB0028E9D1C5
:102C50001A6822EA0102E7E700F1080373B503608E
:102C6000D1E900530446EE181DB916B10C4809F01D
:102C7000A1FC0F2B019307D9002201A9204609F0DE
:102C8000A3FC019B2060A36032462946206809F01E
:102C9000FAFC019B226863600021D15402B070BD30
:102CA000F0DA000800F1080373B5044603600D462E
:102CB000D9B10846FDF7E6FA0F2805EB00060190AA
:102CC00007D9002201A9204609F07EFC019B206063
:102CD000A36032462946206809F0DAFC019B22688D
:102CE00063600021D15402B070BD014809F062FC5C
:102CF000F0DA000870B588B0044615460E46019318
:102D000000F082F9144B23600C9BA3619DF83430D2
:102D1000237765620E9BA36204F12C05019966611D
:102D20002846FFF799FF294602A8FFF795FF4420A0
:102D300009F029FCD4E90923054602A9FEF7DEF9CA
:102D400002A8656409F062FCA26901239340204651
:102D5000236208B070BD00BF20E30008000000003F
:102D60002DE9F0478C4C8D4920688AB0FEF72DFE86
:102D7000FEF77AFD01468A4809F0C0FED4F80080CB
:102D800088494046FEF721FEFEF76EFD864905465E
:102D90004046FEF71AFEFEF767FD844906464046A8
:102DA000FEF713FEFEF760FD814907464046FEF739
:102DB0000CFEFEF759FD7F4904464046FEF705FE2E
:102DC000002800F08480037A03F07F03033B052B87
:102DD0007DD8DFE803F06E6E030362AAD0E900320B
:102DE000B3F1004F72F1000228BF002398467249E8
:102DF0002046FDF73DFA002800F0A2806F492046EA
:102E0000FDF736FA002800F09E806D492046FDF758
:102E10002FFA002800F09A806A492046FDF728FA28
:102E200000280CBF4FF004094FF000096649DFF895
:102E3000C0A13846FDF71CFA644F654BCAF8003054
:102E4000B0FA80F4634B64483B6031462A4609F08F
:102E500055FE624930466409FDF70AFA002878D128
:102E6000294604A8FFF71EFF482009F08CFBCDE996
:102E70000149DAF80010CDF80080054604AB0122C4
:102E8000FFF738FF04A809F0C1FB554B1868294625
:102E90000AB0BDE8F04700F0A9BED0E900324FF01B
:102EA00000410020994270EB020210D3C3F10008E8
:102EB0009DE7016804A8FEF7FBFE9DF82030072B74
:102EC000DDE9040206D0082B17D0062B0DD04FF0F9
:102ED00000088CE74FF000434FF00008834278EB86
:102EE000020384D3C0F1000881E7B0F1004F72F112
:102EF000000300D30020804679E7DDE90689394BDD
:102F0000002240464946FDF707FE0028DFD020A3F7
:102F1000D3E9002340464946FDF7F4FD0028EAD0F6
:102F200040464946FDF70CFEE5E7D0E900892D4B08
:102F3000002240464946FDF7EFFD0028DBD0E6E7DA
:102F40004FF0010972E74FF002096FE74FF00309F4
:102F50006CE730462449FDF78BF9064678B92946D7
:102F600004A8FFF79FFE482009F00DFBCDE90149B9
:102F7000CDF800803968054604AB324680E71B482F
:102F80000AB0BDE8F04709F03FBE00BFAFF30080D4
:102F90000000C0FFFFFFDF41EC01002088E20008D5
:102FA000FBDC000814E3000890E2000895E200084A
:102FB0009CE20008A5E20008AEE2000879DB000808
:102FC00092DB0008B9E20008C3E2000830020020EA
:102FD000E102002031030020C8E20008E3E200081B
:102FE000000300200000E0C1EAE20008F0E200086F
:102FF0006C0200207047704710B51421044609F098
:10300000B1FA204610BD000010B5064B0360002247
:103010000123C0E903320446034809F0F5FD2046C8
:1030200010BD00BF5CE300083CE300080369C26810
:103030000133934210B50446036104DB03681B6946
:10304000984700232361236820469B68BDE8104011
:1030500018470368DB681847406803689B6918478E
:1030600070B504460D461646FFF71EFD044B284674
:10307000C4E900362146FFF71DFD204670BD00BFA4
:1030800080E300087047012380F86030704738B54E
:1030900090F85F300446EBB190F85950226A05F081
:1030A0000F000123023803FA00F081B2A4F85C108B
:1030B000EB0984F85E3013882D069BB246BF83432C
:1030C000138019434FF0000358BF118084F8593022
:1030D00084F85F3094F860309BB1E06904F1250218
:1030E0000523C15C02F8011B0133392BF9D13522CC
:1030F00004F1240104F1640002F04AFF002384F883
:10310000603038BD38B50125044680F85F50A830DE
:1031100001F0A2F82A4604F1590104F16400BDE867
:10312000384003F07BB8000010B5034B0360044641
:10313000FFF760FF204610BDBCE3000810B5044651
:10314000FFF7F2FF20464FF4B47109F00BFA204666
:1031500010BD00002DE9F04F04468BB00E46154619
:1031600004F12408FFF750FF4FF0350A5B4B236052
:10317000C4E90765524600254FF03A090021404650
:1031800009F0D4FB84F85A5084F85F5084F86050FA
:1031900084F81890082009F0F6F994F918102246DE
:1031A0000646FFF75DFF142229460DEB020066611B
:1031B00009F0BCFB4A4E4B4809F026FD02954A4BEC
:1031C0006366336B494843F001033363336B079500
:1031D00003F0010302934FF4C062029B0223CDE986
:1031E000052303210723CDE9081305A901F09AFF60
:1031F0000395736C43F010037364736CC4F88050D0
:1032000003F010030393039B4FF4E13304F16407CD
:10321000C4E91A350C23C4E91E35C4E91C553846E7
:1032200002F032FE0495336B43F480033363336B57
:1032300003F480030493049B2D4B4FF0006BC4E90F
:103240002A3B4FF4806604F1A803C4E92C55C4E975
:103250002E65C4E93055C4E932551846019300F093
:1032600041FF019BC4F89C302A4629464846C4F8D1
:10327000E07000F0BBFE484600F0EAFE1D4BC4F8CB
:103280002051C4E9423B4023C4E944354FF48073E4
:10329000C4E94935C4E94665C4F82C5104F5847580
:1032A000284600F01FFFC4F89850C4F84071124837
:1032B00009F0AAFC1149404609F040FD642352463A
:1032C0004146384602F00EFE012204F1590138460B
:1032D00002F0A4FF20460BB0BDE8F08FBCE300086D
:1032E0000038024084E30008001001400000024062
:1032F00040640240B86402409AE30008AFE300086B
:1033000038B51A4B196879B10C68194D5CB3E1688E
:1033100019B12846FCF7ACFFF8B1B4F90A3013B381
:1033200004EB0314F2E72168124D134809F0E6FBA1
:10333000124B2B604FF4B47009F025F9104B2A683A
:1033400019680446FFF706FF0E4B1C600E4B214622
:103350001868BDE8384000F049BC237A03F07F03C9
:10336000033B012BDFD90021DEE700BFEC01002089
:1033700088E2000868020020FBDC0008350300201A
:103380004C00002054010020000300207047000082
:1033900010B5034B03600446FFF72CFE204610BD1A
:1033A00014E4000810B50446FFF7F2FF2046702130
:1033B00009F0D8F8204610BDC36DD0ED187A93ED12
:1033C000007AB4EE677AF1EE10FAD0B5044628D050
:1033D00093ED007ADFED1C7AB4EEE77AF1EE10FAA5
:1033E00020DDC4ED187AD4ED1A7AF8EE677A17EE7C
:1033F000900AFDF7B3F80646206E0F46FDF7AEF8CB
:10340000124B0022FDF72CFA0B4602463946304695
:10341000FDF7FCF8FDF7BCFB0D4BE066014658B923
:103420005863D0BDDFED0B7AB5EEC07AF1EE10FA3D
:1034300058BFF0EE477AD4E7421EBDE8D0400648B8
:103440005A6309F05BBB00BF0000C842000059404E
:10345000000C004000000000D8E300082DE9F04116
:10346000054690B00C46FFF7CFFD304BEC650024CD
:103470002B6021461C2209A82D4ECDE9024409F0FB
:1034800055FA2146142204A809F050FA0094336C2E
:1034900043F001033364336CEC6103F001030093E8
:1034A0003C22009BEC6242F21073C5E919234FF0F5
:1034B00080483B2305F11407C5E9058342F20F73E9
:1034C000C5E90834384602F0A9FA02A93846CDE920
:1034D000024402F0D9FB6023224609A93846099329
:1034E0000B940D9402F0FCFA0194336B114843F0F5
:1034F00001033363336B03F001030193022204A938
:10350000019B0123CDE904320893CDE9064401F083
:1035100009FE094809F0F2FA2146384602F0B2FBEA
:103520002846C8F8344010B0BDE8F08114E4000823
:103530000038024000000240F0E3000800000000F4
:10354000F0B5494C4949206887B0FEF73EFA01467C
:1035500038B1037A03F07F03033B012B94BF01686A
:103560000021434809F0CAFA42492068FEF72DFAC3
:10357000002841D0037A03F07F03033B052B3BD89F
:10358000DFE803F02C2C03030B5FD0E90043B4F118
:10359000004F73F100030AD32EE0D0E900434FF04F
:1035A00000420020A24270EB030354D36442324B2A
:1035B000324EE21D03EB820346F82430702008F0FF
:1035C000E2FF56F824100546FFF748FF2C4B186819
:1035D000294607B0BDE8F04000F008BB0168684626
:1035E000FEF766FB9DF81030072BDDE9004205D0A1
:1035F000082B0FD0062B08D00024D8E74FF000434B
:103600000020A34270EB0203CFE7B4F1004F72F148
:103610000003C0E7DDE902671A4B00223046394655
:10362000FDF77AFA0028E7D00DA3D3E9002330464E
:103630003946FDF767FA70B130463946FDF780FA32
:1036400009E0D0E900670F4B002230463946FDF70C
:1036500063FA0028E8D10446A9E700BFAFF3008071
:103660000000C0FFFFFFDF41EC01002088E20008FE
:10367000FBDC000805E40008BC020020700200200A
:10368000000300200000E0C17047000010B5074BA8
:10369000044640F8343B08F0B9FF04F11C0008F080
:1036A000B5FF2046FFF7A6FC204610BD5CE40008ED
:1036B00010B50446FFF7EAFF20467C2108F052FFD0
:1036C000204610BD00F1080373B50360D1E9005333
:1036D0000446EE181DB916B10C4808F06BFF0F2B0D
:1036E000019307D9002201A9204608F06DFF019B34
:1036F0002060A36032462946206808F0C4FF019B81
:10370000226863600021D15402B070BDF0DA000875
:1037100000F1080373B5044603600D46D9B10846AD
:10372000FCF7B0FD0F2805EB0006019007D9002239
:1037300001A9204608F048FF019B2060A3603246A3
:103740002946206808F0A4FF019B226863600021DD
:10375000D15402B070BD014808F02CFFF0DA000827
:1037600070B52DED028B044688B0154608EE101A90
:103770000193FFF749FC284B656104F11C052360A8
:103780000199284604F13406FFF79CFF0E99304654
:10379000FFF798FF109B6365119BE365129B2366FF
:1037A0000F9B2367294602A8FFF78CFF442008F0EF
:1037B000EAFE012202A90546FDF786FC656702A81C
:1037C00008F024FF314602A8FFF77CFF442008F0F0
:1037D000DAFE02A905460122FDF776FC02A8A567DC
:1037E00008F014FF236F012202FA03F307EE903A68
:1037F000B8EEC88AF8EEE77A636987EE887A002126
:103800009A4020466166A261A4F84C1084ED1A7AB1
:1038100008B0BDEC028B70BD5CE4000810B5036E0F
:1038200082691B781340002B14BF01230023044638
:1038300080F84C3038D0436D90ED1A7A1B68416E99
:10384000036507EE903AF8EEE77A67EE877AFDEEC9
:10385000E77A17EE903A5A184266C0ED1B7A006F6D
:10386000002B81EA020142FA00F2A265D4BF0022D5
:10387000012284F84D20012202FA00F0084213D000
:10388000A16F002BC86AC98BD8BF002201F02AFDA6
:10389000636F0122D98BD86A01F024FDE36D626E5B
:1038A0001A60012384F84E3010BDFFF7B7BF10B582
:1038B000436F0446D98BD86A002201F013FD002320
:1038C00084F84E3010BDFFF7F2BF0000000000008A
:1038D0002DE9F047664D6749286892B0FEF775F804
:1038E000FDF7C2FF0146644809F008F963492868FA
:1038F000FEF76BF80CAE002800F08580037A03F029
:103900007F03033B052B0BD8DFE803F06969030352
:103910000CA0D0E90043B4F1004F73F100030BD3C6
:10392000002409E0D0E900434FF000420020A24209
:1039300070EB0303F4D364422D685149DFF85C81D6
:10394000DFF85C91DFF85CA12846FEF73EF8FDF752
:103950008BFF4C4907462846FEF737F8FDF784FFF2
:10396000494B611C03EB810248F82420474A02EBD3
:10397000810249F8242024330546394606A8CAF8AE
:103980000030FFF7C5FE29463046FFF7C1FE7C2018
:1039900008F0F9FDDAF80030049359F82430039365
:1039A00058F8243002931623CDE9006338492246A3
:1039B00006AB0968374C0546FFF7D2FE304608F0E3
:1039C00025FE06A808F022FE2068294600F00EF920
:1039D0002068294612B0BDE8F04700F010B9016830
:1039E0003046FEF765F99DF84030072BDDE90C0203
:1039F0000BD0082B12D0062B92D1B0F1004F72F1F0
:103A0000000300D30020044696E74FF00043002453
:103A1000834274EB02038FD344428DE7DDE90E89C4
:103A20001D4B002240464946FDF776F80028EAD0B3
:103A30000DA3D3E9002340464946FDF763F800286B
:103A4000E1D040464946FDF77BF8DCE7D0E9008944
:103A5000114B002240464946FDF75EF800283FF42E
:103A60005FAFE5E7AFF300800000C0FFFFFFDF417D
:103A7000EC01002088E20008FBDC000830E40008CC
:103A80003DE4000846E40008BC0200200D030020CD
:103A900048000020700100200000E0C1500200201A
:103AA000380200203402002010B502720022C0E962
:103AB0000522C0E90722C0E9092204464160C3602B
:103AC000C2621946024809F019F8204610BD00BF2D
:103AD00078E4000837B50446142008F054FDE36884
:103AE00094F9082061680094054600F0F5F8256017
:103AF00003B030BD436910B50446E362E36AA269CE
:103B0000934205D01868FFF791FAE36A0433F4E7AB
:103B1000237C5BB1236AE362E36A626A934205D065
:103B20001868FFF796FAE36A0433F4E710BD000063
:103B30002DE9F84FD0E9008993466FF06043A9EB77
:103B40000802B3EBA20F07468A464FEAA20402D14D
:103B50001E4808F032FD012C224638BF0122A4186D
:103B6000A1EB08052ED27CB39C4228BF1C46A000C6
:103B700008F009FD0646DBF800307351002D04DD26
:103B80002A464146304608F0B7FEA9EB0A0904353B
:103B9000B9F1000F354404DD4A465146284608F085
:103BA0009DFE4D44B8F1000F05D0B9684046A1EB29
:103BB000080108F0D7FC06EB8404C7E90065BC6087
:103BC000BDE8F88F1C46D2E72646D4E78DE400080E
:103BD00010B50A46D0E90114A14204D0126841F898
:103BE000042B416010BDFFF7A3FFFBE707B51430BE
:103BF000019101A9FFF7ECFF03B05DF804FB13B5D9
:103C000004460191203001A9FFF7E2FF012323744C
:103C100002B010BD0069FFF76DBF000013B5436827
:103C200025498B42044633D1244808F067FF00231E
:103C30000093234B5A6C42F480325A645B6C03F459
:103C400080330093009B1F4B1A68636859680021FA
:103C50005960032199629208E168B2FBF1F2013ADE
:103C6000DA6201225A61DA6019681143196094F925
:103C70000830002B06DB590903F01F039A40124B52
:103C800043F82120114802B0BDE8104008F0BCBF45
:103C90000F498B42D9D10F4808F030FF0023019320
:103CA000074B5A6C42F400325A645B6C03F40033E5
:103CB0000193019BC7E700BF00400140A7E4000853
:103CC000003802405400002000E100E0D0E4000889
:103CD00000440140BBE4000838B5C360049B0361A5
:103CE000044641600272082008F04DFC94F9081067
:103CF0000546224600F00AF820462560FFF78EFFB1
:103D0000204638BD4068FFF785BF000070B5044607
:103D10000D461646FEF7C8FE044B2846C4E9003699
:103D20002146FEF7C7FE204670BD00BFE8E400084C
:103D3000DFF834D00D480E490E4A002302E0D45873
:103D4000C4500433C4188C42F9D30B4A0B4C0023E3
:103D500001E013600432A242FBD3FEF77BFD08F0C2
:103D600079FDFEF785FB704700000220000000206F
:103D7000E40000204C040108E8000020D487002063
:103D8000FEE730B570B1CC6864B18A6852B10B6996
:103D900043B10D6849688560C0E90424C16083614E
:103DA000002030BD4FF0FF30FBE773B546680023BD
:103DB0000446019366B1A36998470546A3699847ED
:103DC000431BB3F5FA6FF9D901236360002527E09F
:103DD000836803B19847202323600025636901AA03
:103DE00012213046984700281DDB019B03F01F037A
:103DF000B3421AD12660002520681F282DD87DB92E
:103E000023694FF4004229469847002828DB63695C
:103E1000206801AA2946984700280ADA6FF00405AD
:103E2000284602B070BD6FF004050136202ED5D1B2
:103E3000E2E7A36998470546019BA2691B04BAD52E
:103E40009047401BB0F5FA7F0DD86369206801AA3E
:103E5000002198470028EFDAE0E76FF00205DFE77E
:103E60006FF00305DCE76FF00105D9E737B50025F2
:103E700043690195044601AA006801219847A842B8
:103E800003DA6FF0040003B030BD6369206801AA53
:103E9000012198470028F4DB019B5B072CD563695F
:103EA000206801AA294698470028EADB019BDD0427
:103EB0000ED403F40452B2F5045F01D10220E2E70C
:103EC000980401D50320DEE7D90513D50420DAE7ED
:103ED0006369206801AA1F2198470028D1DB019B54
:103EE000DA040BD503F01C03182BE7D0082BE9D01C
:103EF000142BEBD00520C6E70120C4E70620C2E75B
:103F000038B50E4A0E4B054618784FF47A73B3FB5A
:103F1000F0F31068B0FBF3F000F0BAF8044658B9BB
:103F20000F2D09D8024629464FF0FF3000F05EF809
:103F3000044B20461D6038BD0120FCE754000020E2
:103F4000580000205C00002008B50B4B1A6842F4B2
:103F500000721A601A6842F480621A601A6842F4A9
:103F600080721A60032000F02FF80F20FFF7C8FFBF
:103F7000FEF7BCFB002008BD003C0240034A044B96
:103F800011681B780B441360704700BFAC0400201D
:103F900058000020014B1868704700BFAC04002097
:103FA00038B50446FFF7F6FF631C1CBF054B1B78B2
:103FB000054618BFE418FFF7EDFF431BA342FAD3F1
:103FC00038BD00BF580000200749CA6822F4E062EB
:103FD0000302120403F4E063120C134343F0BF63C3
:103FE00043F40033CB60704700ED00E0164B30B572
:103FF000DC68C4F30224C4F10705231D042D28BF87
:104000000425062B4FF0FF338CBF033C002403FA3A
:1040100005F521EA0501A34022EA0302A140002898
:1040200041EA0203ACBF00F16040084A4FEA0313C3
:10403000B8BF00F00F00DBB2AABF00F56140135417
:1040400080F8003330BD00BF00ED00E014ED00E06B
:10405000002808DB4209012300F01F0003FA00F0EA
:10406000014B43F82200704700E100E0BFF34F8F9F
:104070000549064BCA6802F4E0621343CB60BFF304
:104080004F8F00BFFDE700BF00ED00E00400FA0520
:104090000138B0F1807F0BD24FF0E023054A586120
:1040A000F02182F823100020072298611A617047DE
:1040B0000120704700ED00E0036810B5084C02468F
:1040C000D9B210391820B1FBF0F0205CD06523F490
:1040D0007F7020F003005F2988BF0430906510BD19
:1040E000ECE4000870B50446FFF754FF0546002CC9
:1040F00073D0022384F835302268002384F83430EA
:10410000136823F00103136021680B68D8072FD4CC
:104110000B68334DA0691D40D4E901231343E268C5
:1041200013432269134362691343E2690343134350
:10413000226A1343626A042A43EA050302BFD4E9F0
:104140000B5635432B430B604B69042A23F00703BE
:1041500043EA020333D1A26AE56A13437DB390B9FF
:10416000012A21D032F0020229D1EA0127D51EE02E
:10417000FFF710FF401B0528C6D9202363650320E5
:1041800084F8350070BDB0F5005F14D1032A16D84D
:1041900001A050F822F000BFAF4100086B410008B9
:1041A000AF410008A9410008B5F1C07F07D1402305
:1041B00063650120E4E7022AF9D9032AD5D04B61CF
:1041C0002046FFF779FFE26D3F2393408360002094
:1041D0000123606584F83530D4E70120D2E700BFC1
:1041E0003F8010F070B590F83440866D012C31D0CE
:1041F000012480F8344090F83540012C4FF0000540
:104200004FF0020424D180F83540046845652568E4
:1042100025F48025256063608368402B0EBFA26073
:10422000A160E260C26D08BFE1603F239340B360CC
:10423000236843F016032360036C1BB1236843F02B
:1042400008032360236843F001032360002070BD4E
:1042500080F834500220FAE7F7B5002301935C4B55
:10426000856D1F68C36D2E6808229A40324204464D
:104270000CD001680868400708D5086820F00400E1
:104280000860AA60626D42F00102626501229A40F4
:10429000324208D021684969090641BFAA60626DAF
:1042A00042F00202626504229A40324208D021683C
:1042B0000968880741BFAA60626D42F00402626526
:1042C00010229A40324210D02368196809070CD591
:1042D000AA601A68500337D51B68190301D4236CF0
:1042E00000E0A36C0BB120469847E16D20228A4084
:1042F00032423AD023681868C60636D5AA6094F8C8
:104300003520052A1A6827D122F016021A605A6948
:1043100022F080025A61226C0AB9A26C1AB11A68A2
:1043200022F008021A603F238B40AB60012384F81F
:104330003530002384F83430236D002B45D02046DF
:1043400003B0BDE8F04018471A68D2055EBF1A688E
:1043500022F008021A60C2E7500327D51B68190330
:1043600031D4636C0BB120469847636D6BB3636DBA
:10437000DA0719D522684FF41653B7FBF3F7052374
:1043800084F83530136823F001031360019B013377
:10439000BB42019302D81368DB07F7D4012384F8EA
:1043A0003530002384F83430E36CC6E71A6812F421
:1043B000807208D1196821F010011960012384F876
:1043C000353084F83420E36BCCE703B0F0BD00BF98
:1043D000540000202DE9F041866A00EB860CDCF8E1
:1043E00018301C68002C02DA0220BDE8F081DCF8ED
:1043F0002C40002CF8D18C68D1F800E025689D6035
:104400005D68676825F4FF5525F01F053D431EF0E4
:10441000010F5D6005D01F684D6927F440073D43DB
:104420001D601EF0200F05D01D68096925F040654C
:10443000294319601EF0040F1EBF196841F0800166
:104440001960196841F080511960BFF35F8F1968D6
:10445000DFF8D08041F00041196000253146A468A2
:1044600005F1010EB4B9002A57D01A6842F0804213
:104470001A601A6842F000521A6000EB8103C26BA6
:10448000DA62816272B6036C01332B44036462B654
:104490000020AAE71D6825F000551D601D682AB39D
:1044A00045F080454F1C032F88BFCF1E1D6000EBD9
:1044B0008705AB69196821F08051196019680029D6
:1044C00017DADCF81810002272458DD0BFF35F8F29
:1044D0000B6823F000430B60731C032B88BFF31E93
:1044E00000EB8301013289691E46EDE725F0804526
:1044F000D8E7E96A0029E4D12168996059686568BC
:1045000001EA080129435960BFF35F8F196841F040
:104510000041196075463946A1E71A6822F08042C9
:10452000A6E700BF00E0FFFF2DE9F0470268DFF8D3
:10453000FCC0136891F81F8003EA0C0C0B7C002B65
:104540004B7C0D460CBF4FF400070027002B8B68F7
:10455000496995F81C9095F804E043EA0103A97FA6
:104560000CBF4FF4800600260029A96943EA010325
:1045700095F8201004460CBF4FF40050002000298D
:10458000696A43EA010343EA084343EA093343EA19
:104590008E2395F80FE043EACE1395F828E043EA1E
:1045A0000E1343EA0C0343EA070343EA06030CBF76
:1045B0004FF4007A4FF0000A034343EA0A03136002
:1045C00001201668FFF7ECFC21682A6D0E608869EF
:1045D000AE6C95F84C3020F0BE000004000C42EAAE
:1045E0000642024395F85500002B0CBF80230023A0
:1045F00001280CBF082000201A4395F856300243CA
:1046000095F85400012B0CBF0423002301280CBF94
:1046100002200020134303438B6101208D69FFF7C3
:10462000BFFC23689D61BDE8F08700BF0F8120FFBC
:104630000268F8B502F5805205469369264891F85C
:104640000DC018400B7B0C46002B4B7F276A0CBF1C
:104650004FF080660026002B636943EA0703A77BBF
:1046600043EA4C6343EA4753277F43EAC713A77FD4
:1046700043EA871394F8247043EA870343EA00036C
:104680000CBF4FF48011002133430B439361012091
:104690009669FFF785FC2A68A169A36802F5805234
:1046A0000B43966194F8251043EAC11321690B432B
:1046B00021680B43A16A43EA8103217943EA4163FC
:1046C00043F40003136001201468FFF769FC2B68B2
:1046D00003F580531C60F8BD233FDEF813B50023BB
:1046E0000193036803F5805304469A6942F48012EB
:1046F0009A619B6901930120FFF752FC2368019A9C
:1047000003F580539A6102B010BD00002DE9F34714
:10471000876EC66EDFF880A00023019307F11203B5
:10472000044650F823504FF0010844F2F85916B1EE
:10473000B8F1000F0CD1E36EB34206D0236803F545
:10474000805300229A60C4E91A7602B0BDE8F0876F
:104750002B6A33B901A801F0A7FF019BCBB12B62F3
:10476000AB60A36D93B9C5F804A0BFF35F8F2B684E
:1047700043F000432B607B1C032B88BFFB1E03F11F
:104780001202013E54F822501F46D0E7C5F80490AB
:10479000EBE79846CBE700BFF8450080F0B504464C
:1047A000A7B0002800F0DC80D0F8843023B92323A0
:1047B000C0F8843001F02AFE00230193694BA16800
:1047C0005A6C42F480425A645B6C03F48043019358
:1047D000019B654B5A6822F400025A605A680A43EA
:1047E0005A605B68236803F580531A6842F001023F
:1047F0001A60FFF7CFFB0646236803F580531D6858
:1048000015F0010540F09F8001264FF4804240F2F0
:1048100001174FF400630DA92046CDE912238DF84E
:104820003860ADF852600F958DF850508DF85450A7
:104830008DF84350ADF8447016958DF85C501F9577
:104840008DF880502195ADF888508DF88A50FFF78B
:104850006BFE4FF4803304934FF40053CDE90635DB
:104860004FF48003089320464FF4807302A98DF81B
:104870000C608DF81660ADF82430ADF814708DF82A
:1048800026500A95ADF82C700C950295FFF7D0FED6
:10489000E66804F1180C33462A462846186058602A
:1048A0009860D8604CF8043B1F68194647F480179D
:1048B00041F8287B032A14BFD960DE601F680132EB
:1048C00047F44007042A1F600B46E7D1216801F531
:1048D00080510022A2620E61266904F14807334626
:1048E0004FF0004C44F2F85E1A605A609A60DA6049
:1048F000C3F800C0C3F804E0586820F000405860D6
:10490000032D03F1280005F10105C3E9082247F84A
:10491000043B14BFD860DE60042D0346E4D10020C0
:10492000C4E91700C4E91A006268A0650F4BCE60A5
:104930009188196412685A641023C4F88800C4F876
:10494000843027B0F0BDFFF725FB801BB0F5FA7F60
:104950007FF652AF0423C4F88830E023C4F88430D3
:104960000120EEE70038024000380140008002409C
:10497000D0F88430102B70B504462DD104232325A4
:10498000C366C0F88450FFF7C1FE23681A6842F07E
:1049900008021A6001201E68FFF702FB23681E60F0
:1049A0001A6842F004021A6001201E68FFF7F8FA44
:1049B000236820461E60FFF791FE236803F58053AD
:1049C00000209A6942F400529A619A6942F0020208
:1049D0009A61C4F8845070BD0120FCE738B5D0F866
:1049E0008430232B044629D1C0F88430036803F5B2
:1049F00080520120916921F400519161916921F067
:104A0000020191611A6822F004021A601D68FFF722
:104A1000C7FA236820461D60FFF760FE23681A6806
:104A200022F008021A6001201D68FFF7B9FA236816
:104A30001D601023C4F88430002038BD0120FCE73D
:104A4000F8B50446154639B9D0F8883043F001036B
:104A5000C4F88830012027E0D0F88430232BF9D126
:104A60000022FFF7B7FC20B1D4F8883043F00203EE
:104A7000EEE7BFF34F8FA36A9A1D54F822705A1CB9
:104A8000032A86BF033BA362A262A26A236806329E
:104A900003F5805354F822205A60FFF77BFA06464C
:104AA0003B68002B01DB0020F8BD236803F5805331
:104AB0005A69920409D5D4F8882042F00802C4F853
:104AC00088205B69C4F88C30C4E76B1CE8D0FFF722
:104AD00061FA801BA84201D8002DE1D1D4F88830BA
:104AE00043F00403C4F888304FF040533B60B1E713
:104AF0002DE9F04F044685B08A4649B9D0F8883090
:104B000043F00103C0F88830012005B0BDE8F08F04
:104B1000D0F88430232BF7D1D0F85C9009F1120340
:104B20004FF0000850F82350C36EC3F1040300F1A6
:104B30008001019346467C30C3462B68002B05DB81
:104B4000019B9E4202D0B8F1000F11D0E36E1E44CB
:104B5000E66616B12046FFF7D9FDC4F85C90B8F1BF
:104B6000000FD1D0E36FCAF800300020E067CCE737
:104B70002B68DB0541BFAB69A367EB6963672B68F3
:104B80009F0501D4E36F1BB32B689A052B6848BFC0
:104B9000C4E918BBDB054ABF2F6867692B68AA68A0
:104BA00042BF2367C7F30D47043FBBB22A62CDE97A
:104BB000020148BF4FF0010801F098FD236E013358
:104BC0002366636EDDE902013B446366C5F820B0ED
:104BD00009F10103032B88BFA9F1030303F11202BA
:104BE000013654F822509946A7E7F8B50546006803
:104BF0001E460369920102F4F86403F01C0222438A
:104C0000CC02A4B2144344F001040461FFF7C2F9DA
:104C1000074614F0010405D12B685B699BB2336031
:104C20002046F8BDFFF7B6F9C01BB0F5803F02D2B1
:104C30002B681C69EDE70120F3E770B505460068B5
:104C40000669920102F4F86406F01C022243CC02C9
:104C5000A4B214439BB244F0030443610461FFF720
:104C600099F9064614F0010401D1204670BDFFF702
:104C700091F9801BB0F5803F02D22B681C69F1E7E7
:104C80000120F3E700295DD003681A68C2F300121F
:104C900081F828201A6802F060024A621A6882F4D9
:104CA0000072C2F3402281F820201A68C2F3004249
:104CB000CA771A6882F40052C2F340328A771A68BF
:104CC000C2F300320A771A6802F400628A611A6835
:104CD00002F480424A611A6882F48002C2F3805270
:104CE0004A741A6882F40002C2F3C0520A741A6845
:104CF000C2F3C012CA731A6802F460228A601A688A
:104D0000C2F380220A719A69C2F3400281F85420EA
:104D10009A6982F08002C2F3C01281F84C209A692D
:104D200002F030020A659A69120C8A649A69C2F329
:104D3000800281F856209B69C3F3C00381F8553087
:104D4000002070470120704708B539B1D0F8843091
:104D5000102B03D1FFF7E8FB002008BD0120FCE782
:104D600038B5036805461C6900F03CFD114B124A3A
:104D70000344934224F01C0404D244F008042B683A
:104D80001C6138BD0D4B0E4A0344934202D844F0D7
:104D90000C04F4E70B4B0C4A03449342EFD30B4B48
:104DA0000B4A0344934294BF44F0040444F01004BB
:104DB000E5E700BF00D3CEFEC0E1E40040F1E9FD2D
:104DC0003F787D0100796CFC005A6202001F0AFAEC
:104DD0007FF0FA02094910B50C6924F440740C61A3
:104DE0000C6944F440740C610C6944F001040C61DA
:104DF0000260BFF36F8F436010BD00BF003C0240F4
:104E0000074B1A6922F440721A611A6942F400725F
:104E10001A611A6942F001021A610160704700BF0D
:104E2000003C0240074B1A6922F440721A611A6969
:104E300042F480721A611A6942F001021A6101801B
:104E4000704700BF003C02401A4BDA68D20606D514
:104E50001949CA6942F01002CA611022DA60DA68A0
:104E6000900606D51449CA6942F00802CA61202298
:104E7000DA60104BDA68510606D50F49CA6942F06C
:104E80000402CA614022DA60DA68120606D50A49CD
:104E9000CA6942F00202CA618022DA60054AD36818
:104EA0009B0706D50449CB6943F02003CB6102235D
:104EB000D3607047003C0240B0040020064B1A69E2
:104EC000002ABFBF054A5A6002F188325A60BABF51
:104ED0001869C00F00207047003C0240230167455D
:104EE000114B70B500220446DA61FFF753F80F4DFD
:104EF0000646EB68DA030CD4EB68DB0744BF0123FA
:104F0000EB60E86810F0F20007D0FFF79DFF01208A
:104F100003E0611CEDD00CB9032070BDFFF73AF837
:104F2000801BA042E5D9F7E7B0040020003C024016
:104F3000F7B5204E01931446327E012A07460D46EE
:104F400035D001224CF250303276FFF7C9FFB8B9A4
:104F5000019BCFB9184B1A6922F440721A611A6981
:104F60001A611A69E4B242F001021A612C704CF223
:104F70005030FFF7B5FF104A136923F001031361A6
:104F80000023337603B0F0BD012F04D1A1B228462F
:104F9000FFF748FFEBE7022F04D121462846FFF731
:104FA0002FFFE4E722462846FFF714FFDFE7022041
:104FB000E8E700BFB0040020003C0240074B19693D
:104FC00021F440711961196941F0040119611A69EC
:104FD00042EA002040F4803018617047003C0240F3
:104FE00039B101291CD002290CBF4FF400714FF4D4
:104FF00040710D4B1A6922F440721A611A6911430B
:1050000019611A6922F0F8021A611A6942EAC000AD
:1050100040F0020018611A6942F480321A61704748
:105020004FF48071E5E700BF003C0240144B1A6862
:1050300091050FD51A6822F400721A601A6842F4BA
:1050400000621A601A6822F400621A601A6842F458
:1050500000721A600A4B1A6852050FD51A6822F4BA
:1050600080621A601A6842F480521A601A6822F448
:1050700080521A601A6842F480621A60704700BF5A
:10508000003C02402DE9F843DFF8948098F818308E
:10509000012B05460F463FD001234CF2503088F8D3
:1050A0001830FFF71DFF0446A0B94FF0FF333B60F7
:1050B0002B68012B14D1287CFFF780FF4CF2503075
:1050C000FFF70EFF154A136923F00403044613612A
:1050D000FFF7ACFF002388F818302046BDE8F883BE
:1050E000AE68DFF83890D5E902231344B342EFD914
:1050F000297C3046FFF774FF4CF25030FFF7F0FE8A
:10510000D9F8103023F0FA03C9F8103010B13E601E
:105110000446DDE70136E6E70224DEE7003C024014
:10512000B00400202DE9F74FDFF8A891674A00236B
:105130000D6801249C4004EA050CAC4340F0B180AA
:105140004D6805F003044FEA43080326671E06FA7C
:1051500008F6012F6FEA060634D8876807EA060EBC
:10516000CF6807FA08F747EA0E078760476827EA1B
:105170000C0EC5F300179F4047EA0E074760C7684B
:1051800007EA060E8F6807FA08F747EA0E07022CAF
:10519000C76019D14FEAD30A00EB8A0A03F0070B64
:1051A000DAF820704FEA8B0B4FF00F0E0EFA0BFE61
:1051B00027EA0E0E0F6907FA0BF747EA0E07CAF83F
:1051C000207001E0032CDAD1076804FA08F43E40AD
:1051D000264315F4403F066063D04FF0000ACDF837
:1051E00004A0D9F844603A4C46F48046C9F84460BB
:1051F000D9F8446006F480460196019E23F0030628
:1052000006F1804606F59C3603F0030ED6F80880BA
:105210004FEA8E0E0F2707FA0EF7A04228EA07077B
:1052200046D004F58064A04244D004F58064A042D6
:1052300042D004F58064A04240D004F58064A042CE
:105240003ED004F58064A0423CD004F58064A042C6
:105250003AD004F58064A0420CBF0724082404FA65
:105260000EF43C43B46094686FEA0C06EF0254BF3E
:1052700034404CEA04049460D468AF0254BF344014
:105280004CEA0404D4605468AF0354BF34404CEA81
:10529000040454601468ED0354BF34404CEA040421
:1052A00014600133102B7FF443AF03B0BDE8F08FDF
:1052B0005446D4E70124D2E70224D0E70324CEE702
:1052C0000424CCE70524CAE70624C8E7003C0140D3
:1052D00000000240003802400369194214BF012057
:1052E000002070470AB1816170470904FBE70000A4
:1052F0002DE9F341044640B30368DD0710D4236869
:1053000098075ED423681A0700F1A08023685B0722
:1053100000F1C080A069002840F0288100202BE027
:105320008F4B9A6802F00C02042A07D09A6802F0A8
:105330000C02082A0BD15A68510208D5884B1B6809
:105340009A03DCD56368002BD9D1012014E0626890
:10535000B2F5803F13D11A6842F480321A60FEF72A
:1053600019FE7F4E054633689B03C8D4FEF712FE34
:10537000401B6428F7D9032002B0BDE8F081784DC6
:10538000B2F5A02F2B6807D143F480232B602B6844
:1053900043F480332B60E2E723F480332B602B68E7
:1053A00023F480232B60002AD9D1FEF7F3FD0646B3
:1053B0002B689F03A3D5FEF7EDFD801B6428F7D96A
:1053C000D9E7674B9A6812F00C0F07D09A6802F081
:1053D0000C02082A11D15B685E020ED4604A136881
:1053E0009D0702D5E368012BAFD11368216923F033
:1053F000F80343EAC103136084E7E268594BB2B192
:1054000001221A60FEF7C6FD554D06462B68980727
:1054100007D52B68226923F0F80343EAC2032B6007
:1054200070E7FEF7B7FD801B0228EFD9A3E71A60EB
:10543000FEF7B0FD4A4E0546336899077FF562AF27
:10544000FEF7A8FD401B0228F6D994E76269454B98
:1054500082B10122C3F8802EFEF79CFD404E054626
:10546000736F9F073FF552AFFEF794FD401B022874
:10547000F6D980E7C3F8802EFEF78CFD384E05463E
:10548000736F98077FF542AFFEF784FD401B02283B
:10549000F6D970E7324B1A6C12F0805228D1019283
:1054A0001A6C42F080521A641B6C03F08053019313
:1054B000019B01272C4D2B68D9051BD5A368284DCE
:1054C000012B27D12B6F43F001032B67FEF762FD01
:1054D000234E054641F28838336F9B0739D5002F9C
:1054E0003FF418AF1E4A136C23F08053136411E786
:1054F0000027DFE72B6843F480732B60FEF74AFD3B
:1055000006462B68DA05D9D4FEF744FD801B022835
:10551000F7D930E7052B04D12B6F43F004032B6739
:10552000D0E72A6F22F001022A672A6F22F00402D4
:105530002A67002BCAD1FEF72DFD41F288380646B6
:105540002B6F9807CBD5FEF725FD801B4045F7D97B
:1055500011E7FEF71FFD401B4045BDD90BE700BF1B
:10556000003802400000474200700040364DAB68F2
:1055700003F00C03082B3DD0344B002202281A669E
:105580002BD1FEF707FD06462B6899011FD4D4E9FD
:1055900007321343626A43EA8213E26A43EA026310
:1055A000A26A5208013A43EA02436B60274B264D38
:1055B00001221A66FEF7EEFC04462B689A013FF5BD
:1055C000ADAEFEF7E7FC001B0228F6D9D3E6FEF7E6
:1055D000E1FC801B0228D7D9CDE6FEF7DBFC0446B0
:1055E0002B689B017FF59AAEFEF7D4FC001B0228C6
:1055F000F6D9C0E601283FF4BFAE6B68E26903F458
:10560000800191427FF4A1AE216A03F03F028A42F9
:105610007FF49BAE616A47F6C0721A40B2EB811FFD
:105620007FF493AEA26A520803F44031013AB1EB21
:10563000024F7FF48AAEE26A03F07063B3EB026F4D
:105640003FF46CAE81E600BF0038024000004742E4
:10565000134908B58B6803F00C03042B1CD0082BEE
:105660001CD14A684B68496813F4800314BF0D4885
:105670000D48C1F3881118BF002302F03F02A1FBBF
:105680000001FBF7A5FA064B5B68C3F30143013346
:105690005B00B0FBF3F008BD0248FCE70248FAE704
:1056A0000038024040787D010024F4002DE9F041EB
:1056B0000D46044610B90120BDE8F081444B1A683C
:1056C00002F007028A4228D3226897072DD4D00718
:1056D00041D43F4B1A6802F00702AA4266D82268FA
:1056E00051076CD4130707D53A4A2169936823F40C
:1056F000604343EAC1039360FFF7AAFF354B364A84
:105700009B68C3F30313D35CD840344B1860344B0D
:105710001868FEF7F5FB0020CEE7CAB21A701B68C6
:1057200003F007038B42C6D1CEE72A4B12F0040FD9
:105730001EBF996841F4E0519960160742BF99680D
:1057400041F4604199602349A0688B6823F0F0031D
:1057500003438B60BBE762681E4B012A1CD11B68A8
:1057600013F4003FA7D01B4EB36823F00303134389
:10577000B360FEF70FFC41F288380746B3686268F1
:1057800003F00C03B3EB820FA3D0FEF703FCC01BA6
:105790004045F3D903208FE7911E01291B6802D8E9
:1057A00013F0007FDEE713F0020FDBE7EAB21A70B6
:1057B0001B6803F00703AB427FF47DAF8FE7054919
:1057C000E0688B6823F4E05303438B608AE700BFF3
:1057D000003C024000380240D3E1000854000020A1
:1057E0005C000020014B1868704700BF5400002087
:1057F000044B054A9B68C3F38223D35C034A1068B9
:10580000D840704700380240E3E10008540000200F
:10581000044B054A9B68C3F34233D35C034A1068C8
:10582000D840704700380240E3E1000854000020EF
:10583000036A23F001030362036A70B54468826956
:105840000D6822F073022A438D6823F002032B4374
:105850000E4DA84202D00E4EB04210D1CE6823F0B9
:1058600008033343A84223F0040302D0084DA842A2
:1058700005D1D1E9055624F4407435432C434460E6
:1058800082614A684263036270BD00BF000001404C
:1058900000040140036A23F480730362036A70B555
:1058A0004468C2690D6822F073022A438D6823F4AC
:1058B000007343EA0523114DA84203D005F5806526
:1058C000A84214D1CD6823F4006343EA05230B4DAD
:1058D000A84223F4806303D005F58065A84206D171
:1058E000D1E9055624F44054354344EA0514446094
:1058F000C2614A68C263036270BD00BF000001401C
:10590000036A23F480530362036A30B54468C269B2
:105910000D6822F4E64242EA05228D6823F4005322
:1059200043EA0533084DA84203D005F58065A84237
:1059300004D14D6924F4804444EA85144460C26172
:105940004A680264036230BD0000014070470000F5
:10595000304A0368904212D0B0F1804F0FD0A2F5C8
:105960007C4290420BD002F58062904207D002F553
:105970008062904203D002F57842904219D14A6881
:1059800023F070031343234A904229D0B0F1804F93
:1059900026D0A2F57C42904222D002F5806290424D
:1059A0001ED002F5806290421AD002F578429042F1
:1059B00016D0194A904213D002F5806290420FD05F
:1059C00002F5806290420BD0A2F59832904207D047
:1059D00002F58062904203D002F58062904203D1CA
:1059E000CA6823F4407313434A6923F080031343C6
:1059F00003608B68C3620B688362064B984203D0D6
:105A000003F58063984201D10B690363012343616D
:105A1000704700BF000001400040014010B504463F
:105A200030B390F83D3003F0FF021BB980F83C2002
:105A3000FFF78CFF0223206884F83D30211DFFF71B
:105A400087FF012384F84630002084F83E3084F834
:105A50003F3084F8403084F8413084F8423084F894
:105A6000433084F8443084F8453084F83D3010BD2C
:105A70000120FCE7036A23F010030362036A70B598
:105A8000446882690D6822F4E64242EA05228D6884
:105A900023F0200343EA0513104DA84203D005F577
:105AA0008065A84214D1CD6823F0800343EA051332
:105AB0000A4DA84223F0400303D005F58065A842B3
:105AC00006D1D1E9055624F44064354344EA8504FF
:105AD000446082614A688263036270BD00000140D5
